:100000000C9468010C946E0D0C94430D0C94180D17
:100010000C94ED0C0C94C20C0C94970C0C946C0C7E
:100020000C94410C0C9499010C9499010C94990135
:100030000C9499010C9499010C9499010C949901D8
:100040000C9499010C9499010C9499010C949901C8
:100050000C9499010C9499010C9499010C94F70B50
:100060000C9499010C94C10B0C94970B0C9499016E
:100070000C9499010C9499010C9499010C94990198
:100080000C9499010C9499010C9499010C94990188
:100090000C9499010C9499010C9499010C94990178
:1000A0000C9499010C9499010C9499010C94990168
:1000B0000C9499010C9499010C9499010C94990158
:1000C0000C9499010C9499010C9499010C94990148
:1000D0000C9499010C9499010C9499010C94990138
:1000E0000C9499010C942F030C94990D0C943503E6
:1000F0000C942B030C9467040C9439030C940603A2
:100100000C94F4020C941D030C94FA020C94CF018D
:100110000C94A2010C94F2010C9420040C940F0393
:100120000C94A8040C9409030C94B7040C945D047B
:100130000C9494040C9439040C9488050C940002DB
:100140000C94B2040C9421030C949E040C942F0480
:100150000C9471040C94DE010C9466030C9413034C
:100160000C9438020C94DC060C9486050C948A04DA
:100170000C9443040C9402030C9453040C94180440
:100180000C944B040C9480040C941C050C943403C4
:100190000C9419030C94FE020C9425040C94091180
:1001A0000C9485020C9487050C9427030000210011
:1001B000240027002A002D00300033000101000038
:1001C000040107010A0100002200250028002B007D
:1001D0002E003100340002010000050108010B016E
:1001E000000020002300260029002C002F003200F0
:1001F00000010000030106010901050505050705C9
:1002000008080808020202020A0A08080404040492
:1002100001010101010101010303030303030303BE
:10022000040707070C0C0C0C0C0C0C0C020202024D
:1002300006060606060606060B0B0B0B0B0B0B0B36
:1002400001021020200808102040102040800201E8
:1002500002010804020101020408102040808040CD
:1002600020100804020180040201804020100804CC
:10027000020108040201010204081020408001026A
:1002800004081020408000000A0B02090C0D0E0823
:10029000070304010000000000000000000000004F
:1002A000000000000000000000000000000000004E
:1002B000000012111000000000000000000000000B
:1002C000000000000000000000000000990D09116E
:1002D00011241FBECFEFD1E2DEBFCDBF00E00CBFC7
:1002E00012E0A0E0B2E0E4E9FEE200E00BBF02C0F1
:1002F00007900D92A035B107D9F723E0A0E5B2E051
:1003000001C01D92A439B207E1F711E0C7E6D1E0C0
:1003100000E006C021970109802FFE010E9406150A
:10032000C636D10780E00807A9F70E94EB0D0C94B0
:1003300038170C940000DC01ED91FC910190F081E4
:10034000E02D1994AF92BF92CF92DF92EF92FF927D
:100350000F931F93CF93DF936C017B018B01040FED
:10036000151FEB015E01AE18BF08C017D10759F089
:100370006991D601ED91FC910190F081E02DC601CB
:100380001995892B79F7C501DF91CF911F910F91B5
:10039000FF90EF90DF90CF90BF90AF900895FC0159
:1003A000538D448D252F30E0842F90E0821B930BDA
:1003B000541710F0CF96089501970895FC01918D80
:1003C000828D981761F0A28DAE0FBF2FB11D5D9683
:1003D0008C91928D9F5F9F73928F90E008958FEF25
:1003E0009FEF0895FC01918D828D981731F0828DD9
:1003F000E80FF11D858D90E008958FEF9FEF089530
:10040000FC01918D228D892F90E0805C9F4F821B93
:1004100091098F73992708958FEC92E00E94000252
:1004200021E0892B09F420E0822F0895FC01A48D9E
:10043000A80FB92FB11DA35ABF4F2C91848D90E006
:1004400001968F739927848FA689B7892C93A089E9
:10045000B1898C91837080648C93938D848D981373
:1004600006C00288F389E02D80818F7D8083089506
:10047000EF92FF920F931F93CF93DF93EC0181E0F4
:10048000888F9B8D8C8D98131AC0E889F98980819B
:1004900085FF15C09FB7F894EE89FF896083E889CE
:1004A000F98980818370806480839FBF81E090E0C0
:1004B000DF91CF911F910F91FF90EF900895F62E4D
:1004C0000B8D10E00F5F1F4F0F731127E02E8C8DE7
:1004D0008E110CC00FB607FCFACFE889F98980812C
:1004E00085FFF5CFCE010E941602F1CFEB8DEC0F08
:1004F000FD2FF11DE35AFF4FF0829FB7F8940B8F49
:10050000EA89FB8980818062CFCFCF93DF93EC01B2
:10051000888D8823B9F0AA89BB89E889F9898C91EB
:1005200085FD03C0808186FD0DC00FB607FCF7CFA7
:100530008C9185FFF2CF808185FFEDCFCE010E94A7
:100540001602E9CFDF91CF91089580E090E0892BEA
:1005500029F00E940C0281110E94000080E090E0CE
:10056000892B49F080E090E0892B29F00E9400005F
:1005700081110E94000080E090E0892B49F080E02A
:1005800090E0892B29F00E94000081110E94000058
:1005900080E090E0892B49F080E090E0892B29F001
:1005A0000E94000081110C94000008958150823156
:1005B00008F05AC0E82FF0E08827EE51FD4F8F4F2A
:1005C0000C94061502030603F402FA02FE02340339
:1005D00009030F03130319031D03210327032B032F
:1005E00034032F0335033903809180008F77809384
:1005F00080000895809180008F7DF9CF80918000E8
:10060000877FF5CF84B58F7784BD089584B58F7DBE
:10061000FBCF8091B0008F778093B00008958091D8
:10062000B0008F7DF9CF809190008F7780939000FC
:100630000895809190008F7DF9CF80919000877F01
:10064000F5CF8091A0008F778093A00008958091CE
:10065000A0008F7DF9CF8091A000877FF5CF80919A
:1006600020018F77809320010895809120018F7D54
:10067000F9CF80912001877FF5CFCF93DF93282F8B
:1006800030E0F901EA57FD4F8491F901E05CFD4F3C
:10069000D491F901E650FE4FC491CC23A1F0811111
:1006A0000E94D602EC2FF0E0EE0FFF1FE052FE4F4B
:1006B000A591B491EC91ED2381E090E009F480E004
:1006C000DF91CF91089580E090E0FACF82E00E9420
:1006D0003D0390936E0280936D02892B31F48CED73
:1006E00095E090936C0280936B0208951F93CF93D3
:1006F000DF93282F30E0F901EA57FD4F8491F9018B
:10070000E05CFD4FD491F901E650FE4FC491CC233B
:10071000A9F0162F81110E94D602EC2FF0E0EE0F07
:10072000FF1FEA53FE4FA591B4918FB7F894EC9157
:10073000111108C0D095DE23DC938FBFDF91CF91DC
:100740001F910895DE2BF8CFCF93DF9390E0FC014B
:10075000E05CFD4F249186509E4FFC0184918823DC
:10076000C9F090E0880F991FFC01E455FE4FA59158
:10077000B491FC01EA53FE4FC591D49161110DC0B3
:100780009FB7F8948C91209582238C93888128239D
:1007900028839FBFDF91CF910895623051F49FB7B6
:1007A000F8943C91822F809583238C93E8812E2BA3
:1007B000EFCF8FB7F894EC912E2B2C938FBFEACF0D
:1007C0001F93CF93DF93182FEB0161E00E94A403E6
:1007D000209739F460E0812FDF91CF911F910C9425
:1007E0007603CF3FD10511F461E0F5CFE12FF0E0C2
:1007F000EA57FD4FE491E150E23108F0B3C0F0E078
:100800008827EA5FFB4F8F4F0C94061518042004CD
:1008100025042F043904B20443044B0453045D043B
:100820006704710480048A04B20494049E04A8043A
:1008300084B5806884BDC7BDDF91CF911F910895B5
:1008400084B5806284BDC8BDF7CF80918000806888
:1008500080938000D0938900C0938800EDCF809171
:100860008000806280938000D0938B00C0938A00C8
:10087000E3CF80918000886080938000D0938D00CA
:10088000C0938C00D9CF8091B00080688093B00075
:10089000C093B300D1CF8091B00080628093B0004C
:1008A000C093B400C9CF809190008068809390007D
:1008B000D0939900C0939800BFCF80919000806240
:1008C00080939000D0939B00C0939A00B5CF809105
:1008D0009000886080939000D0939D00C0939C000E
:1008E000ABCF8091A00080688093A0008091A00091
:1008F0008F7B8093A000D093A900C093A8009CCFC9
:100900008091A00080628093A000D093AB00C09340
:10091000AA0092CF8091A00088608093A000D0931D
:10092000AD00C093AC0088CF809120018068809397
:100930002001D0932901C09328017ECF809120010E
:10094000806280932001D0932B01C0932A0174CF41
:1009500080912001886080932001D0932D01C09365
:100960002C016ACFC038D1050CF03ECF33CF82E1E5
:100970000E943D03892B69F48FEF90E090936A0207
:10098000809369026091690270916A0284E00C941C
:10099000E00310926A0210926902F4CF863308F0E5
:1009A000865320917B00982F9870277F922B9093ED
:1009B0007B008770806480937C0080917A008064E3
:1009C00080937A0080917A0086FDFCCF8091780038
:1009D0009091790008953FB7F89480915B029091CF
:1009E0005C02A0915D02B0915E0226B5A89B05C095
:1009F0002F3F19F00196A11DB11D3FBFBA2FA92F9E
:100A0000982F8827BC01CD01620F711D811D911D9A
:100A100042E0660F771F881F991F4A95D1F7089506
:100A20002FB7F89460915702709158028091590243
:100A300090915A022FBF08958F929F92AF92BF92CA
:100A4000CF92DF92EF92FF92CF93DF93C091540247
:100A5000D09155022196D0935502C09354020E9422
:100A600010050E94F6116B017C012091500230911B
:100A7000510240915202509153020E94781320E09B
:100A800030E048E453E40E948D141816A4F58CE37A
:100A90008C9FB0018D9F700D1124072E000C880BC8
:100AA000990B0E94F81120915F02309160024091F1
:100AB0006102509162020E94E5134B015C01C092F9
:100AC0005002D0925102E0925202F09253021092E0
:100AD00055021092540220E030E040E050E40E94C1
:100AE0008D14181644F4C501B4010E945714709374
:100AF000680260936702DF91CF91FF90EF90DF90E3
:100B0000CF90BF90AF909F908F90089508950895D3
:100B100090E080E00895CF93DF93EC0160E08E8158
:100B20000E94760361E08E810E94760360E08E81F0
:100B30000E9476038BE891E00197F1F7DF91CF9166
:100B40000895CF92DF92EF92FF920F931F93CF936E
:100B5000DF936C017C0187E0E80EF11CD0E0C0E07F
:100B6000062F10E0B8010C2E02C0759567950A9407
:100B7000E2F76170F70181917F010E94760321966F
:100B8000C430D10579F7C601DF91CF911F910F9144
:100B9000FF90EF90DF90CF900C948B05CF92DF9277
:100BA000EF92FF920F931F93CF93DF93EC01F62EFA
:100BB000642F8C810E9476038D818F3F19F060E055
:100BC0000E9476030F2D10E08F8584FF25C06E01F3
:100BD00087E0C80ED11CF12CE12CB8010E2C02C00C
:100BE000759567950A94E2F76170F60181916F013E
:100BF0000E947603FFEFEF1AFF0A88E0E816F1047F
:100C000061F7CE01DF91CF911F910F91FF90EF908F
:100C1000DF90CF900C948B05B80184E075956795B3
:100C20008A95E1F7CE010E94A1056F2DCE01DF91DB
:100C3000CF911F910F91FF90EF90DF90CF900C9488
:100C4000A10540E0682F8CE693E00C94CE05CF938D
:100C5000DF93823029F490917B03986090937B031B
:100C600080937F031092800380E48093810380E16E
:100C70008093820380E58093830361E08091700319
:100C80000E94A403809171038F3F19F061E00E94DC
:100C9000A40361E0809172030E94A403CCE6D3E038
:100CA0009E012C56334080917B0384FD0BC084E071
:100CB00090E021962817390744F461E08E810E9464
:100CC000A403EECF88E090E0F4CF8BE39DE00197A2
:100CD000F1F760E0809170030E94760360E08091FC
:100CE00072030E947603809171038F3F19F060E0D8
:100CF0000E94760380917B0384FD39C063E08CE61B
:100D000093E00E94A105CBE4D6E4CE010197F1F770
:100D100063E08CE693E00E94A1052197F1F763E080
:100D20008CE693E00E94A10583E592E00197F1F73C
:100D300062E08CE693E00E94A10580917B038062D3
:100D40000E94210684E080937C038CE00E942106AF
:100D500081E00E9421068BE39FE10197F1F782E099
:100D600080937D0386E0DF91CF910C942106806211
:100D70000E9421068BE496E40197F1F780917B03B2
:100D800080620E94210683E592E00197F1F780914D
:100D90007B0380620E942106D0CF90917F03691768
:100DA00010F06FEF690FE62FF0E0E459FC4F9489E3
:100DB000890F80680C94210641E00E94CE0581E0F5
:100DC00090E00895FB0101900020E9F73197AF0111
:100DD000461B570BDC01ED91FC910280F381E02D65
:100DE00019948F929F92AF92BF92EF92FF920F93BE
:100DF0001F93CF93DF93CDB7DEB7A1970FB6F894CB
:100E0000DEBF0FBECDBF7C01FA01CB0119A222309B
:100E100008F42AE08E010F5D1F4F822E912CB12C19
:100E2000A12CBF01A50194010E944713F901CA0139
:100E30006A300CF5605DD8016E938D01232B242B55
:100E4000252B79F790E080E0109721F0BD01C701D4
:100E50000E94E206A1960FB6F894DEBF0FBECDBF8A
:100E6000DF91CF911F910F91FF90EF90BF90AF90C6
:100E70009F908F900895695CDECFCF92DF92EF92C2
:100E8000FF920F931F93CF93DF936B01770FEE08C1
:100E9000FF08F7FE1BC0EC016DE20E949B018C0174
:100EA00044275527BA014C195D096E097F092AE0CC
:100EB000CE010E94F106800F911FDF91CF911F910B
:100EC0000F91FF90EF90DF90CF9008952AE0B70147
:100ED000A601DF91CF911F910F91FF90EF90DF90CE
:100EE000CF900C94F1062F923F924F925F926F92A7
:100EF0007F928F929F92AF92BF92CF92DF92EF92AA
:100F0000FF921F93CF93DF93EC016A017B01722E56
:100F1000AB019601CB01B6010E94D81468E372E0E0
:100F2000811126C046015701E894B7F82FEF3FEF33
:100F30004FE75FE7C501B4010E94D81481110CC0CE
:100F40002FEF3FEF4FE75FE7C501B4010E94F111BA
:100F50006CE372E0181664F02FEF3FEF4FE75FE4A9
:100F6000C701B6010E948D141816B4F460E472E053
:100F7000CE01DF91CF911F91FF90EF90DF90CF9046
:100F8000BF90AF909F908F907F906F905F904F90A9
:100F90003F902F900C94E2062FEF3FEF4FE75FEC6E
:100FA000C701B6010E94F11187FDE0CF20E030E0DB
:100FB000A901C701B6010E94F111312C212C87FF34
:100FC00009C06DE2CE010E949B011C01F7FAF0946A
:100FD000F7F8F09410E060E070E080E09FE37116B5
:100FE00041F020E030E040E251E40E94E5131F5F51
:100FF000F6CFA70196010E9479132B013C010E94B4
:101000005E144B015C012AE0BC01A401CE010E94E8
:10101000F1067C01E20CF31C1123C1F1C501B401FE
:101020000E94F6119B01AC01C301B2010E9478132A
:101030004B015C016EE2CE010E949B01E80EF91E9D
:10104000115020F120E030E040E251E4C501B4014C
:101050000E9457122B013C010E945E144B01B12CDF
:10106000A12C2AE0B501A401CE010E94F106E80EF0
:10107000F91EC501B4010E94F6119B01AC01C30128
:10108000B2010E9478134B015C01DACFC701DF91F6
:10109000CF911F91FF90EF90DF90CF90BF90AF90D6
:1010A0009F908F907F906F905F904F903F902F9088
:1010B0000895FC0180819181009711F00C94BE1578
:1010C00008952F923F924F925F926F927F928F92EC
:1010D0009F92AF92BF92CF92DF92EF92FF920F93C7
:1010E0001F93CF93DF93CDB7DEB72E970FB6F8944B
:1010F000DEBF0FBECDBF8EE580937C0080917B006C
:10110000877F80937B000E94EB046B017C0132E0BF
:10111000832E912CA12CB12C0E94EB046C197D091B
:101120008E099F09683E734081059105A8F328EE5A
:10113000C20E23E0D21EE11CF11C8A9489288A2861
:101140008B2829F0812C912C54018394E5CF809138
:101150007A00806480937A0080917A0086FDFCCFCB
:10116000809178002091790030E0322F2227032EE1
:10117000000C440B550B282B60E070E381E190E0FC
:101180000E94151329873A874B875C870E941005B8
:101190006B017C01809187020E94CE049093CC0267
:1011A0008093CB02BC01990F880B990B0E94F81118
:1011B0004B015C012DEC3CEC4CE054E40E94F1113D
:1011C00087FF0CC081E0898326E636E646EE53E4CD
:1011D000C501B4010E948D1418160CF019820E94EA
:1011E00010056C197D098E099F0965367105810509
:1011F000910518F45981552369F20E9410056D83F9
:101200007E838F83988710E000E0312C212C0E9490
:1012100010052D813E814F815885621B730B840B15
:10122000950B643671058105910508F046C10F5F85
:101230001F4F80919F029091A002A091A102B091B6
:10124000A20280939B0290939C02A0939D02B09374
:101250009E02809187020E94CE0490939802809310
:101260009702809189020E94CE049E878D87909379
:101270009A02809399028090A7029090A802A09071
:10128000A902B090AA0280919702909198029A8345
:101290008983BC01990F880B990B0E94F8116B018F
:1012A0007C01A50194010E94781320E030E040E821
:1012B0005AE30E945712A50194010E9479139B01E1
:1012C000AC012093A7023093A8024093A902509347
:1012D000AA02C701B6010E9478134B015C018092FB
:1012E0009F029092A002A092A102B092A20240900E
:1012F000AB025090AC026090AD027090AE02AD8532
:10130000BE85BD01BB0F880B990B0E94F8116B01C4
:101310007C01A30192010E94781320E030E040E8B4
:101320005AE30E945712A30192010E9479139B0174
:10133000AC012093AB023093AC024093AD025093CA
:10134000AE02C701B6010E9478136B017C01C09206
:10135000A302D092A402E092A502F092A602A501F7
:101360009401C501B4010E9457129B01AC01209366
:10137000B3023093B4024093B5025093B602609129
:10138000B7027091B8028091B9029091BA020E949E
:1013900079136093B7027093B8028093B902909367
:1013A000BA02A7019601C701B6010E9457129B011C
:1013B000AC012093BB023093BC024093BD0250931A
:1013C000BE026091BF027091C0028091C1029091F3
:1013D000C2020E9479136093BF027093C00280938F
:1013E000C1029093C20240909B0250909C02609078
:1013F0009D0270909E02A3019201C501B4010E945A
:10140000781320919302309194024091950250916B
:1014100096020E945712A30192010E9479139B0128
:10142000AC012093AF023093B0024093B1025093CD
:10143000B202C701B6010E9457129B01AC01209372
:10144000C3023093C4024093C5025093C602609118
:10145000C7027091C8028091C9029091CA020E948D
:1014600079136093C7027093C8028093C902909366
:10147000CA028091CE028093CD028091CB029091DE
:10148000CC0229813A81821793070CF0FCC031E02D
:101490003093CE028091CE020130110511F4809379
:1014A000CD029091CD02981719F04FEF241A340A0B
:1014B00094E12916310409F0AACE49855A85BA016A
:1014C000550F880B990B0E94F81120E030E04AE795
:1014D00054E40E94E51320E030E040E85AE30E9423
:1014E00057122B013C0120918B0230918C024091CC
:1014F0008D0250918E020E9457124B015C01B8017F
:1015000090E080E00E94F6116B017C01AC019B0130
:101510006091B7027091B8028091B9029091BA02BD
:101520000E94E5130E9498149B01AC01C501B4010F
:101530000E94571269837A838B839C8360937F0216
:1015400070938002809381029093820220918F0297
:10155000309190024091910250919202C301B201E8
:101560000E9457122B013C01A70196016091BF0216
:101570007091C0028091C1029091C2020E94E51355
:101580000E9498149B01AC01C301B2010E94571242
:101590006D837E838F839887609383027093840228
:1015A0008093850290938602A3019201C501B40144
:1015B0000E9457122091C7023091C8024091C9027F
:1015C0005091CA020E945712A70196010E94E5138A
:1015D0006B017C01C0927302D0927402E09275029A
:1015E000F09276022D813E814F81588569817A8102
:1015F0008B819C810E9457129B01AC012093770242
:10160000309378024093790250937A02C701B60171
:101610000E94E51360937B0270937C0280937D02AD
:1016200090937E021092B7021092B8021092B90203
:101630001092BA021092BF021092C0021092C10220
:101640001092C2021092C7021092C8021092C902F0
:101650001092CA022E960FB6F894DEBF0FBECDBF11
:10166000DF91CF911F910F91FF90EF90DF90CF907E
:10167000BF90AF909F908F907F906F905F904F90B2
:101680003F902F9008951092CE0204CF0F931F9396
:10169000CF93DF93EC0188819981009759F02A81DB
:1016A0003B812617370730F081E0DF91CF911F9102
:1016B0000F9108958B016F5F7F4F0E94471600972F
:1016C00059F0998388831B830A832C813D81232BC6
:1016D00059F7FC011082E8CF80E0E7CFCF93DF938A
:1016E000EC01198218821B821A821D821C8270E012
:1016F00060E00E94460B2881398181110FC02115BD
:10170000310519F0C9010E94BE15198218821D8287
:101710001C821B821A82DF91CF9108951D821C8248
:101720006FE472E0C901DF91CF910C9431171F92E1
:101730000F920FB60F9211240BB60F922F933F9377
:101740004F935F936F937F938F939F93AF93BF93C9
:10175000EF93FF938FEC92E00E941602FF91EF91BE
:10176000BF91AF919F918F917F916F915F914F91B9
:101770003F912F910F900BBE0F900FBE0F901F90B7
:1017800018951F920F920FB60F9211240BB60F925D
:101790002F938F939F93EF93FF93E091DF02F0914C
:1017A000E0028081E091E502F091E60282FD1DC039
:1017B00090818091E8028F5F8F732091E9028217F8
:1017C00041F0E091E802F0E0E153FD4F958F809306
:1017D000E802FF91EF919F918F912F910F900BBE97
:1017E0000F900FBE0F901F9018958081F2CF1F921F
:1017F0000F920FB60F9211242F933F938F939F93C5
:10180000AF93BF938091570290915802A0915902D3
:10181000B0915A023091560223E0230F2D3758F52C
:101820000196A11DB11D20935602809357029093FB
:101830005802A0935902B0935A0280915B02909192
:101840005C02A0915D02B0915E020196A11DB11DE6
:1018500080935B0290935C02A0935D02B0935E0262
:10186000BF91AF919F918F913F912F910F900FBE9C
:101870000F901F90189526E8230F0296A11DB11D09
:10188000D2CF1F920F920FB60F9211240BB60F9268
:101890002F933F934F935F936F937F938F939F9378
:1018A000AF93BF93EF93FF93E0910E02F0910F027D
:1018B0001995FF91EF91BF91AF919F918F917F917A
:1018C0006F915F914F913F912F910F900BBE0F90B1
:1018D0000FBE0F901F9018951F920F920FB60F9288
:1018E00011240BB60F922F933F934F935F936F93F7
:1018F0007F938F939F93AF93BF93EF93FF93E09169
:101900000C02F0910D021995FF91EF91BF91AF91EB
:101910009F918F917F916F915F914F913F912F9107
:101920000F900BBE0F900FBE0F901F9018951F9237
:101930000F920FB60F9211240BB60F922F933F9375
:101940004F935F936F937F938F939F93AF93BF93C7
:10195000EF93FF93E0910202F09103021995FF913A
:10196000EF91BF91AF919F918F917F916F915F9117
:101970004F913F912F910F900BBE0F900FBE0F9084
:101980001F9018951F920F920FB60F9211240BB64D
:101990000F922F933F934F935F936F937F938F9308
:1019A0009F93AF93BF93EF93FF93E0910002F09169
:1019B00001021995FF91EF91BF91AF919F918F9186
:1019C0007F916F915F914F913F912F910F900BBE3F
:1019D0000F900FBE0F901F9018951F920F920FB689
:1019E0000F9211240BB60F922F933F934F935F9357
:1019F0006F937F938F939F93AF93BF93EF93FF93D7
:101A0000E0910A02F0910B021995FF91EF91BF91BD
:101A1000AF919F918F917F916F915F914F913F9186
:101A20002F910F900BBE0F900FBE0F901F90189527
:101A30001F920F920FB60F9211240BB60F922F9395
:101A40003F934F935F936F937F938F939F93AF9346
:101A5000BF93EF93FF93E0910802F091090219956B
:101A6000FF91EF91BF91AF919F918F917F916F9176
:101A70005F914F913F912F910F900BBE0F900FBE32
:101A80000F901F9018951F920F920FB60F9211246E
:101A90000BB60F922F933F934F935F936F937F9368
:101AA0008F939F93AF93BF93EF93FF93E0910602C1
:101AB000F09107021995FF91EF91BF91AF919F911E
:101AC0008F917F916F915F914F913F912F910F90E7
:101AD0000BBE0F900FBE0F901F9018951F920F9284
:101AE0000FB60F9211240BB60F922F933F934F9383
:101AF0005F936F937F938F939F93AF93BF93EF9376
:101B0000FF93E0910402F09105021995FF91EF9186
:101B1000BF91AF919F918F917F916F915F914F9105
:101B20003F912F910F900BBE0F900FBE0F901F9003
:101B30001895EFECF2E01382128288EE93E0A0E0B9
:101B4000B0E084839583A683B7838EE192E091838E
:101B5000808385EC90E09587848784EC90E097877C
:101B6000868780EC90E0918B808B81EC90E0938B6A
:101B7000828B82EC90E0958B848B86EC90E0978B47
:101B8000868B118E128E138E148E8AE893E00E943B
:101B90006E0B84E893E00E946E0BECE6F3E0138298
:101BA000128280E392E09183808386E184838FEFC9
:101BB000858387E1868388E1878389E180878AE15D
:101BC00081878BE182871386148615861686178691
:101BD00081E00C942706CF93DF9300D000D01F92B2
:101BE0001F92CDB7DEB7789484B5826084BD84B58A
:101BF000816084BD85B5826085BD85B5816085BD08
:101C000080916E00816080936E00109281008091BF
:101C10008100826080938100809181008160809347
:101C20008100809180008160809380008091B1006C
:101C300084608093B1008091B00081608093B00097
:101C400080919100826080939100809191008160E9
:101C500080939100809190008160809390008091AA
:101C6000A10082608093A1008091A1008160809397
:101C7000A1008091A00081608093A000809121014B
:101C800082608093210180912101816080932101F4
:101C90008091200181608093200180917A0084608E
:101CA00080937A0080917A00826080937A0080919C
:101CB0007A00816080937A0080917A0080688093B6
:101CC0007A001092C10062E082E00E94A40362E008
:101CD00082E10E94A40360E086E00E94A40382E007
:101CE0000E94270680E00E94CE04BC01990F880B59
:101CF000990B611571058105910511F00E94AC11D8
:101D0000E091DF02F091E00282E08083E091DB026B
:101D1000F091DC021082E091DD02F091DE0287E6B4
:101D200080831092E702E091E302F091E40286E002
:101D30008083E091E102F091E20280818061808302
:101D4000E091E102F091E202808188608083E0917D
:101D5000E102F091E202808180688083E091E102FB
:101D6000F091E20280818F7D80830E9466030E9451
:101D7000B7048DEC9CECACEAB0E480935F029093E6
:101D80006002A0936102B09362028CE195E09093AF
:101D90000902809308028091690080638093690042
:101DA000EA9A86E693E09093010280930002809184
:101DB0006A008C7F816080936A00EC9A87EB94E0E4
:101DC00090930B0280930A02809169008F73806464
:101DD00080936900EB9A88E390E090938A02809365
:101DE000890280E090E0A0EAB1E480938F029093B2
:101DF0009002A0939102B093920280E090E0A0E064
:101E0000B4E48093AB029093AC02A093AD02B09384
:101E1000AE0208E110E03CEDE32E35E0F32E47E0A2
:101E2000C42ED12C86E00E943D03909372028093D1
:101E30007102019709F0D3C00E94610840908302AB
:101E400050908402609085027090860287E30E9421
:101E5000CE045C0186E30E94CE0420916D02309195
:101E60006E022130310519F546E04A9D90014B9DE7
:101E7000300D1124820F931FB6010E94F214CB0182
:101E8000880F991F680F791F70936C0260936B0223
:101E900020916B0230916C02C901B8010E94F214CA
:101EA000253C89E0380754F0665071090EC0232B99
:101EB00079F7F0926C02E0926B02EACF293087E06A
:101EC00038070CF4BDC065507109709370026093BF
:101ED0006F0260916F027091700287E00E94E003D0
:101EE0008091670290916802883E934054F460E0CC
:101EF00083E00E94CD0664E472E08CE693E00E94E9
:101F0000E20660E087E00E94CD0666E472E08CE6BF
:101F100093E00E94E20660E080E00E94CD066091BE
:101F20006702709168028CE693E00E943D0720E012
:101F300030E04AE754E4C301B2010E9457124B015A
:101F40005C018092630290926402A0926502B0925A
:101F5000660261E080E00E94CD0622E0B501A401A6
:101F60008CE693E00E94730761E087E00E94CD0653
:101F70006AE472E08CE693E00E94E20680906702D9
:101F800090906802092C000CAA08BB082AE0B50151
:101F9000A401B7FE0DC06DE28FEC92E00E949B01A0
:101FA00044275527BA01481959096A097B092AE0CB
:101FB0008FEC92E00E94F1066DE472E08FEC92E00B
:101FC0000E94E20622E0B301A2018FEC92E00E949F
:101FD00073076DE472E08FEC92E00E94E20680915C
:101FE000710290917202892B09F0FBC0CE0101961B
:101FF0000E946E0B8FEC92E00E940002892BA9F1E7
:102000008FEC92E00E94DE018F831886AD80BE8047
:102010008FEFA81AB80AB501CE0101960E94460BAF
:10202000882341F329813A818D819E81BE01695FB8
:102030007F4F820F931F0E943117BE82AD82DACF8D
:10204000213B84E038070CF03ECF233682E038078E
:102050000CF02ACF67507109273931050CF035CFC4
:102060001092700210926F0234CF89819A81412CB4
:10207000512C3201009719F00E94B5112B010E94DA
:1020800061088090830290908402A0908502B090B5
:10209000860280916D0290916E028130910509F562
:1020A000B201550C880B990B0E94F8112AE131E519
:1020B00042EA5FE30E9457120E94571470936C0229
:1020C00060936B0220916B0230916C02C901B801E0
:1020D0000E94F214253C89E0380754F066507109DB
:1020E0000EC0892B79F7F0926C02E0926B02EACF76
:1020F000293087E038070CF477C065507109709378
:10210000700260936F0260916F027091700287E0BD
:102110000E94E0038091670290916802883E93409C
:1021200054F460E083E00E94CD0664E472E08CE643
:1021300093E00E94E20660E087E00E94CD0666E43C
:1021400072E08CE693E00E94E20660E080E00E948C
:10215000CD0660916702709168028CE693E00E9460
:102160003D0720E030E04AE754E4C501B4010E9495
:1021700057122B013C01409263025092640260921C
:1021800065027092660261E080E00E94CD0622E066
:10219000B301A2018CE693E00E94730761E087E03F
:1021A0000E94CD066AE472E08CE693E00E94E206AB
:1021B00060916702709168028FEC92E00E943D0787
:1021C00022E0B501A4018FEC92E00E9473076DE458
:1021D00072E08FEC92E00E94E206CE0101960E942E
:1021E00059080E94A5021ECE213B84E038070CF05E
:1021F00084CF233682E038070CF070CF6750710926
:10220000273931050CF07BCF1092700210926F02CB
:102210007ACF84E893E00E9459088AE893E00C940E
:1022200059088F929F92AF92BF92CF92DF92EF9216
:10223000FF92CF93DF93EC01688179818A819B8142
:10224000611571058105910521F464E279ED8BE555
:1022500097E02DE133EF41E050E00E941513490172
:102260005A019B01AC01A7EAB1E40E9434136B014F
:102270007C01ACEEB4EFA50194010E944213C60E9E
:10228000D71EE81EF91EF7FE06C081E0C81AD10865
:10229000E10880E8F80AC882D982EA82FB82C70195
:1022A000B6019F77DF91CF91FF90EF90DF90CF90B5
:1022B000BF90AF909F908F9008958F929F92AF9212
:1022C000BF92CF92DF92EF92FF92609110027091D5
:1022D000110280911202909113026115710581051E
:1022E000910521F464E279ED8BE597E02DE133EF80
:1022F00041E050E00E94151349015A019B01AC01D5
:10230000A7EAB1E40E9434136B017C01ACEEB4EF98
:10231000A50194010E944213C60ED71EE81EF91EA5
:10232000F7FE06C081E0C81AD108E10880E8F80A83
:10233000C0921002D0921102E0921202F0921302A7
:10234000C701B6019F77FF90EF90DF90CF90BF90CD
:10235000AF909F908F900895609310027093110238
:10236000809312029093130208951F93FC01992702
:102370008827BC01E89411911032E9F3193010F06C
:102380001E30C8F31B3251F01D3249F4689406C068
:102390000E94DC11610F711D811D911D119110535F
:1023A0001A30B0F33EF490958095709561957F4F0B
:1023B0008F4F9F4F1F910895592F482F372F262F4A
:1023C000660F771F881F991F660F771F881F991F39
:1023D000620F731F841F951F660F771F881F991F39
:1023E00008950E94331208F481E00895E89409C02A
:1023F00097FB3EF490958095709561957F4F8F4F38
:102400009F4F9923A9F0F92F96E9BB279395F6954D
:10241000879577956795B795F111F8CFFAF4BB0FCB
:1024200011F460FF1BC06F5F7F4F8F4F9F4F16C02F
:10243000882311F096E911C0772321F09EE8872FB9
:10244000762F05C0662371F096E8862F70E060E075
:102450002AF09A95660F771F881FDAF7880F9695EE
:10246000879597F90895990F0008550FAA0BE0E892
:10247000FEEF16161706E807F907C0F01216130646
:10248000E407F50798F0621B730B840B950B39F486
:102490000A2661F0232B242B252B21F408950A26EC
:1024A00009F4A140A6958FEF811D811D08950E941A
:1024B0006A120C94DB120E94CD1238F00E94D412E2
:1024C00020F0952311F00C94C4120C94CA1211241C
:1024D0000C940F130E94EC1270F3959FC1F3950FAB
:1024E00050E0551F629FF001729FBB27F00DB11D98
:1024F000639FAA27F00DB11DAA1F649F6627B00D28
:10250000A11D661F829F2227B00DA11D621F739F10
:10251000B00DA11D621F839FA00D611D221F749F1E
:102520003327A00D611D231F849F600D211D822F65
:10253000762F6A2F11249F5750409AF0F1F088238C
:102540004AF0EE0FFF1FBB1F661F771F881F9150B9
:102550005040A9F79E3F510580F00C94C4120C9492
:102560000F135F3FE4F3983ED4F386957795679514
:10257000B795F795E7959F5FC1F7FE2B880F911DE3
:102580009695879597F9089597F99F6780E870E089
:1025900060E008959FEF80EC089500240A941616D9
:1025A000170618060906089500240A941216130641
:1025B000140605060895092E0394000C11F48823CF
:1025C00052F0BB0F40F4BF2B11F460FF04C06F5FEB
:1025D0007F4F8F4F9F4F089557FD9058440F551FC1
:1025E00059F05F3F71F04795880F97FB991F61F095
:1025F0009F3F79F087950895121613061406551F0C
:10260000F2CF4695F1DF08C0161617061806991F77
:10261000F1CF86957105610508940895E894BB276C
:1026200066277727CB0197F90895052E97FB1EF4AF
:1026300000940E942C1357FD07D00E94471307FCFB
:1026400003D04EF40C942C13509540953095219561
:102650003F4F4F4F5F4F08959095809570956195CE
:102660007F4F8F4F9F4F08950E946913A59F900D34
:10267000B49F900DA49F800D911D11240895B7FF64
:102680000C9434130E943413821B930B0895A1E21F
:102690001A2EAA1BBB1BFD010DC0AA1FBB1FEE1FDC
:1026A000FF1FA217B307E407F50720F0A21BB30B27
:1026B000E40BF50B661F771F881F991F1A9469F7A3
:1026C00060957095809590959B01AC01BD01CF01FF
:1026D0000895A29FB001B39FC001A39F700D811DFB
:1026E0001124911DB29F700D811D1124911D08951B
:1026F0005058BB27AA270E9490130C94DB120E940B
:10270000CD1238F00E94D41220F039F49F3F19F412
:1027100026F40C94CA120EF4E095E7FB0C94C41254
:10272000E92F0E94EC1258F3BA1762077307840767
:10273000950720F079F4A6F50C940E130EF4E095AD
:102740000B2EBA2FA02D0B01B90190010C01CA016B
:10275000A0011124FF27591B99F0593F50F4503E16
:1027600068F11A16F040A22F232F342F4427585F08
:10277000F3CF469537952795A795F0405395C9F720
:102780007EF41F16BA0B620B730B840BBAF09150D8
:10279000A1F0FF0FBB1F661F771F881FC2F70EC077
:1027A000BA0F621F731F841F48F48795779567954A
:1027B000B795F7959E3F08F0B0CF9395880F08F036
:1027C0009927EE0F9795879508950E94F9130C9419
:1027D000DB120E94D41258F00E94CD1240F029F46E
:1027E0005F3F29F00C94C41251110C940F130C94F8
:1027F000CA120E94EC1268F39923B1F3552391F3A6
:10280000951B550BBB27AA2762177307840738F05F
:102810009F5F5F4F220F331F441FAA1FA9F335D0BC
:102820000E2E3AF0E0E832D091505040E695001C70
:10283000CAF72BD0FE2F29D0660F771F881FBB1F2A
:10284000261737074807AB07B0E809F0BB0B802D08
:10285000BF01FF2793585F4F3AF09E3F510578F034
:102860000C94C4120C940F135F3FE4F3983ED4F31E
:10287000869577956795B795F7959F5FC9F7880F08
:10288000911D9695879597F90895E1E0660F771F5A
:10289000881FBB1F621773078407BA0720F0621BEB
:1028A000730B840BBA0BEE1F88F7E09508950E9416
:1028B0005E146894B1110C940F1308950E94F412E1
:1028C00088F09F5798F0B92F9927B751B0F0E1F0F1
:1028D000660F771F881F991F1AF0BA95C9F714C0A1
:1028E000B13091F00E940E13B1E008950C940E13D4
:1028F000672F782F8827B85F39F0B93FCCF38695DA
:1029000077956795B395D9F73EF490958095709536
:1029100061957F4F8F4F9F4F08950E94331208F4A7
:102920008FEF089519F416F40C94CA120C94DD1468
:102930000E94F412B8F39923C9F3B6F39F57550BCD
:1029400087FF0E94EB140024A0E640EA9001805823
:102950005695979528F4805C660F771F881F20F0A6
:1029600026173707480730F4621B730B840B2029A6
:1029700031294A2BA69517940794202531254A27FB
:1029800058F7660F771F881F20F02617370748076C
:1029900030F4620B730B840B200D311D411DA0958B
:1029A00081F7B901842F9158880F969587950895DE
:1029B0000E943312880B990B08959F3F31F091507C
:1029C00020F4879577956795B795880F911D969513
:1029D000879597F9089591505040660F771F881F8B
:1029E000D2F7089597FB072E16F4009407D077FDD1
:1029F00009D00E940E1507FC05D03EF490958195F4
:102A00009F4F0895709561957F4F0895EE0FFF1FBA
:102A1000881F8BBF0790F691E02D1994AA1BBB1B52
:102A200051E107C0AA1FBB1FA617B70710F0A61BCE
:102A3000B70B881F991F5A95A9F780959095BC01EF
:102A4000CD0108950F931F93CF93DF9382309105AB
:102A500010F482E090E0E0919203F091930330E073
:102A600020E0B0E0A0E0309799F42115310509F499
:102A70004AC0281B390B24303105D8F58A819B8147
:102A80006115710589F1FB0193838283FE0111C0F9
:102A9000408151810281138148175907E0F048179E
:102AA000590799F4109761F012960C9312971396A8
:102AB0001C933296CF01DF91CF911F910F91089512
:102AC0000093920310939303F4CF2115310551F035
:102AD0004217530738F0A901DB019A01BD01DF015C
:102AE000F801C1CFEF01F9CF909393038093920344
:102AF000CDCFFE01E20FF31F819391932250310954
:102B000039832883D7CF2091900330919103232BD1
:102B100041F42091160230911702309391032093D3
:102B2000900320911402309115022115310541F4D2
:102B30002DB73EB74091180250911902241B350B56
:102B4000E0919003F0919103E217F307A0F42E1B9C
:102B50003F0B2817390778F0AC014E5F5F4F241701
:102B6000350748F04E0F5F1F509391034093900339
:102B7000819391939FCFF0E0E0E09CCFCF93DF93E0
:102B80000097E9F0FC01329713821282A091920320
:102B9000B0919303ED0130E020E01097A1F4208183
:102BA0003181820F931F2091900330919103281758
:102BB000390709F061C0F0939103E0939003DF912E
:102BC000CF910895EA01CE17DF07E8F54A815B81CE
:102BD0009E0141155105B1F7E901FB83EA83499153
:102BE0005991C40FD51FEC17FD0761F480819181C5
:102BF0000296840F951FE9019983888382819381CE
:102C00009B838A83F0E0E0E012968D919C9113976C
:102C10000097B9F52D913C911197CD010296820F45
:102C2000931F20919003309191032817390739F6AB
:102C3000309751F51092930310929203B093910341
:102C4000A0939003BCCFD383C28340815181840F72
:102C5000951FC817D90761F44E5F5F4F888199812E
:102C6000480F591F518340838A819B8193838283BC
:102C70002115310509F0B0CFF0939303E09392034F
:102C80009ECFFD01DC01C0CF13821282D7CF4F92BD
:102C90005F926F927F928F929F92AF92BF92CF92EC
:102CA000DF92EF92FF920F931F93CF93DF938C01EC
:102CB000009799F4CB01DF91CF911F910F91FF9075
:102CC000EF90DF90CF90BF90AF909F908F907F90CC
:102CD0006F905F904F900C942215FC01E60FF71F48
:102CE0009C0122503109E217F30708F4AEC0D90164
:102CF000CD91DC911197C617D70720F1C530D105CA
:102D000078F0CE0104978617970750F0C61BD70BB3
:102D10002297C193D1936D937C93CF010E94BE15EE
:102D2000C801DF91CF911F910F91FF90EF90DF903D
:102D3000CF90BF90AF909F908F907F906F905F905B
:102D40004F9008955B01AC1ABD0A4C018C0E9D1E7C
:102D5000A0919203B0919303512C412CF12CE12CC2
:102D6000109731F580919003909191038815990502
:102D700009F05CC04616570608F058C0809114024E
:102D800090911502009741F48DB79EB740911802BB
:102D900050911902841B950BE817F90708F055C0EC
:102DA000F0939103E0939003F90171836083B8CFAE
:102DB0008D919C91119712966C90129713967C901E
:102DC0001397A815B90559F56C0142E0C40ED11C42
:102DD000CA14DB0420F1AC014A195B09DA0112962E
:102DE000159780F06282738251834083D9016D937D
:102DF0007C93E114F10471F0D7011396FC93EE93E8
:102E000012978ECF22968C0F9D1FF901918380839C
:102E1000F301EFCFF0939303E093920381CF481631
:102E2000590608F42C017D01D3019ACFCB010E94F1
:102E300022157C01009749F0AE01B8010E942817C5
:102E4000C8010E94BE1587016BCF10E000E068CF7B
:102E5000FB01DC0102C001900D9241505040D8F7B7
:102E60000895FB01DC0101900D920020E1F7089527
:102E700011E0C7E6D1E000E006C0802FFE010E940D
:102E800006152196011DC836D10780E00807A9F76D
:042E9000F894FFCFE4
:102E940086058605860586058605860586058605D6
:102EA40001000000000094038000000000003802CC
:102EB400A201CF0185020002DE01F2010000000040
:102EC400DC06A201880587056E616E00696E6600E6
:102ED4006F766600200072706D006D41000D0A006F
:00000001FF
